:0400000090EF06F087
:1008000000000F0EC1129580958295849586000E8A
:10081000936E000E8A6E83A010EF04F012EF04F0C6
:100820008FEF04F0000E036E010E8A6E020E026E50
:10083000040E016EBA0EE82EFED7012EFCD7022E52
:10084000FAD700D0020E8A6E020E026E040E016EFE
:10085000BA0EE82EFED7012EFCD7022EFAD700D012
:10086000040E8A6E020E026E040E016EBA0EE82E9F
:10087000FED7012EFCD7022EFAD700D0080E8A6EC2
:10088000020E026E040E016EBA0EE82EFED7012E85
:10089000FCD7022EFAD700D0100E8A6E020E026E1E
:1008A000040E016EBA0EE82EFED7012EFCD7022EE2
:1008B000FAD700D0200E8A6E020E026E040E016E70
:1008C000BA0EE82EFED7012EFCD7022EFAD700D0A2
:1008D000400E8A6E020E026E040E016EBA0EE82EF3
:1008E000FED7012EFCD7022EFAD700D0800E8A6EDA
:1008F000020E026E040E016EBA0EE82EFED7012E15
:10090000FCD7022EFAD700D0032A030E03648BEF24
:1009100004F08DEF04F014EF04F00BEF04F083A269
:1009200094EF04F096EF04F013EF05F0000E046E60
:10093000800E8A6E020E026E040E016EBA0EE82E52
:10094000FED7012EFCD7022EFAD700D0400E8A6EB9
:10095000020E026E040E016EBA0EE82EFED7012EB4
:10096000FCD7022EFAD700D0200E8A6E020E026E3D
:10097000040E016EBA0EE82EFED7012EFCD7022E11
:10098000FAD700D0100E8A6E020E026E040E016EAF
:10099000BA0EE82EFED7012EFCD7022EFAD700D0D1
:1009A000080E8A6E020E026E040E016EBA0EE82E5A
:1009B000FED7012EFCD7022EFAD700D0040E8A6E85
:1009C000020E026E040E016EBA0EE82EFED7012E44
:1009D000FCD7022EFAD700D0020E8A6E020E026EEB
:1009E000040E016EBA0EE82EFED7012EFCD7022EA1
:1009F000FAD700D0010E8A6E020E026E040E016E4E
:100A0000BA0EE82EFED7012EFCD7022EFAD700D060
:100A1000042A030E04640FEF05F011EF05F098EFC0
:100A200004F00BEF04F083A418EF05F01AEF05F0C3
:100A300089EF05F0000E056E810E8A6E020E026EC1
:100A4000040E016EBA0EE82EFED7012EFCD7022E40
:100A5000FAD700D0420E8A6E020E026E040E016EAC
:100A6000BA0EE82EFED7012EFCD7022EFAD700D000
:100A7000240E8A6E020E026E040E016EBA0EE82E6D
:100A8000FED7012EFCD7022EFAD700D0180E8A6EA0
:100A9000020E026E040E016EBA0EE82EFED7012E73
:100AA000FCD7022EFAD700D0240E8A6E020E026EF8
:100AB000040E016EBA0EE82EFED7012EFCD7022ED0
:100AC000FAD700D0420E8A6E020E026E040E016E3C
:100AD000BA0EE82EFED7012EFCD7022EFAD700D090
:100AE000810E8A6E020E026E040E016EBA0EE82EA0
:100AF000FED7012EFCD7022EFAD700D0052A030E0E
:100B0000056485EF05F087EF05F01CEF05F00BEFAE
:100B100004F083A68EEF05F090EF05F08AEF06F063
:100B2000000E066E000E8A6E020E026E040E016E3C
:100B3000BA0EE82EFED7012EFCD7022EFAD700D02F
:100B4000800E8A6E020E026E040E016EBA0EE82E40
:100B5000FED7012EFCD7022EFAD700D0C00E8A6E27
:100B6000020E026E040E016EBA0EE82EFED7012EA2
:100B7000FCD7022EFAD700D0E00E8A6E020E026E6B
:100B8000040E016EBA0EE82EFED7012EFCD7022EFF
:100B9000FAD700D0F00E8A6E020E026E040E016EBD
:100BA000BA0EE82EFED7012EFCD7022EFAD700D0BF
:100BB000F80E8A6E020E026E040E016EBA0EE82E58
:100BC000FED7012EFCD7022EFAD700D0FC0E8A6E7B
:100BD000020E026E040E016EBA0EE82EFED7012E32
:100BE000FCD7022EFAD700D0FE0E8A6E020E026EDD
:100BF000040E016EBA0EE82EFED7012EFCD7022E8F
:100C0000FAD700D08A68020E026E040E016EBA0E88
:100C1000E82EFED7012EFCD7022EFAD700D0FE0E0A
:100C20008A6E020E026E040E016EBA0EE82EFED718
:100C3000012EFCD7022EFAD700D0FC0E8A6E020ECF
:100C4000026E040E016EBA0EE82EFED7012EFCD7FE
:100C5000022EFAD700D0F80E8A6E020E026E040E33
:100C6000016EBA0EE82EFED7012EFCD7022EFAD75F
:100C700000D0F00E8A6E020E026E040E016EBA0EE5
:100C8000E82EFED7012EFCD7022EFAD700D0E00EB8
:100C90008A6E020E026E040E016EBA0EE82EFED7A8
:100CA000012EFCD7022EFAD700D0C00E8A6E020E9B
:100CB000026E040E016EBA0EE82EFED7012EFCD78E
:100CC000022EFAD700D0800E8A6E020E026E040E3B
:100CD000016EBA0EE82EFED7012EFCD7022EFAD7EF
:100CE00000D0000E8A6E020E026E040E016EBA0E65
:100CF000E82EFED7012EFCD7022EFAD700D0062A06
:100D0000020E066486EF06F088EF06F092EF05F01B
:100D10000BEF04F0000E8A6E0BEF04F000EF00F012
:060D2000000101EF04F0E8
:020000040030CA
:0E000000010C191EFF8181FF0FC00FE00F40A1
:00000001FF
