:0400000060EF04F0B9
:100800000000000E936E000E8A6E9580958683A67A
:100810000CEF04F00EEF04F01DEF04F083B613EFBD
:1008200004F015EF04F00EEF04F0340E1A6EF20E21
:10083000E82EFED71A2EFCD7192A1950800A760FF7
:10084000D8A025EF04F027EF04F029EF04F0000E04
:10085000196E83A22EEF04F030EF04F03FEF04F0A6
:1008600083B235EF04F037EF04F030EF04F0340ECC
:100870001A6EF20EE82EFED71A2EFCD7190619BEF4
:1008800046EF04F044EF04F048EF04F0090E196E4F
:100890001950020DF350010FD96EDA6ADF508A6EDB
:1008A000020E1B6E040E1A6EBA0EE82EFED71A2E1A
:1008B000FCD71B2EFAD700D007EF04F000EF00F0B2
:1008C000F00EF66E080EF76E000EF86E00EE01F0F8
:1008D00010EE14F00900F5CFEEFFE550E150FAE11B
:1008E000196A186A176A166A156A000101EF04F09E
:1008F0003F0006005B004F0066006D007D000700B2
:040900007F006F0005
:020000040030CA
:0E000000010C191EFF8181FF0FC00FE00F40A1
:00000001FF
