:040000003EEF04F0DB
:1008000000000F0EC1129580958693908A90000E7D
:10081000046E000E036E83A010EF04F012EF04F0DC
:1008200020EF04F0031E041E030E026E080E016E7C
:10083000770EE82EFED7012EFCD7022EFAD7000045
:1008400083A625EF04F027EF04F035EF04F0031E34
:10085000041E030E026E080E016E770EE82EFED700
:10086000012EFCD7022EFAD7000003B002D08A90E6
:1008700001D08A800BEF04F000EF00F0000101EFDF
:0208800004F082
:020000040030CA
:0E000000010C191EFF8181FF0FC00FE00F40A1
:00000001FF
